{"abi":[{"type":"constructor","inputs":[{"name":"_aztecOutbox","type":"address","internalType":"address"},{"name":"_aztecInbox","type":"address","internalType":"address"},{"name":"_tokenPortal","type":"address","internalType":"address"},{"name":"_aavePool","type":"address","internalType":"address"},{"name":"_l2ContractAddress","type":"bytes32","internalType":"bytes32"},{"name":"_initialOwner","type":"address","internalType":"address"}],"stateMutability":"nonpayable"},{"type":"function","name":"AAVE_POOL","inputs":[],"outputs":[{"name":"","type":"address","internalType":"address"}],"stateMutability":"view"},{"type":"function","name":"AZTEC_INBOX","inputs":[],"outputs":[{"name":"","type":"address","internalType":"address"}],"stateMutability":"view"},{"type":"function","name":"AZTEC_OUTBOX","inputs":[],"outputs":[{"name":"","type":"address","internalType":"address"}],"stateMutability":"view"},{"type":"function","name":"AZTEC_VERSION","inputs":[],"outputs":[{"name":"","type":"uint256","internalType":"uint256"}],"stateMutability":"view"},{"type":"function","name":"MAX_DEADLINE","inputs":[],"outputs":[{"name":"","type":"uint256","internalType":"uint256"}],"stateMutability":"view"},{"type":"function","name":"MIN_DEADLINE","inputs":[],"outputs":[{"name":"","type":"uint256","internalType":"uint256"}],"stateMutability":"view"},{"type":"function","name":"TOKEN_PORTAL","inputs":[],"outputs":[{"name":"","type":"address","internalType":"address"}],"stateMutability":"view"},{"type":"function","name":"acceptOwnership","inputs":[],"outputs":[],"stateMutability":"nonpayable"},{"type":"function","name":"consumedDepositIntents","inputs":[{"name":"","type":"bytes32","internalType":"bytes32"}],"outputs":[{"name":"","type":"bool","internalType":"bool"}],"stateMutability":"view"},{"type":"function","name":"consumedWithdrawIntents","inputs":[{"name":"","type":"bytes32","internalType":"bytes32"}],"outputs":[{"name":"","type":"bool","internalType":"bool"}],"stateMutability":"view"},{"type":"function","name":"emergencyWithdraw","inputs":[{"name":"token","type":"address","internalType":"address"},{"name":"to","type":"address","internalType":"address"},{"name":"amount","type":"uint256","internalType":"uint256"}],"outputs":[],"stateMutability":"nonpayable"},{"type":"function","name":"executeDeposit","inputs":[{"name":"intent","type":"tuple","internalType":"struct DepositIntent","components":[{"name":"intentId","type":"bytes32","internalType":"bytes32"},{"name":"ownerHash","type":"bytes32","internalType":"bytes32"},{"name":"asset","type":"address","internalType":"address"},{"name":"amount","type":"uint128","internalType":"uint128"},{"name":"originalDecimals","type":"uint8","internalType":"uint8"},{"name":"deadline","type":"uint64","internalType":"uint64"},{"name":"salt","type":"bytes32","internalType":"bytes32"},{"name":"secretHash","type":"bytes32","internalType":"bytes32"}]},{"name":"l2BlockNumber","type":"uint256","internalType":"uint256"},{"name":"leafIndex","type":"uint256","internalType":"uint256"},{"name":"siblingPath","type":"bytes32[]","internalType":"bytes32[]"}],"outputs":[],"stateMutability":"nonpayable"},{"type":"function","name":"executeWithdraw","inputs":[{"name":"intent","type":"tuple","internalType":"struct WithdrawIntent","components":[{"name":"intentId","type":"bytes32","internalType":"bytes32"},{"name":"ownerHash","type":"bytes32","internalType":"bytes32"},{"name":"amount","type":"uint128","internalType":"uint128"},{"name":"deadline","type":"uint64","internalType":"uint64"}]},{"name":"secretHash","type":"bytes32","internalType":"bytes32"},{"name":"l2BlockNumber","type":"uint256","internalType":"uint256"},{"name":"leafIndex","type":"uint256","internalType":"uint256"},{"name":"siblingPath","type":"bytes32[]","internalType":"bytes32[]"}],"outputs":[],"stateMutability":"nonpayable"},{"type":"function","name":"getDeadlineConstraints","inputs":[],"outputs":[{"name":"minDeadline","type":"uint256","internalType":"uint256"},{"name":"maxDeadline","type":"uint256","internalType":"uint256"}],"stateMutability":"pure"},{"type":"function","name":"getIntentAsset","inputs":[{"name":"intentId","type":"bytes32","internalType":"bytes32"}],"outputs":[{"name":"","type":"address","internalType":"address"}],"stateMutability":"view"},{"type":"function","name":"getIntentShares","inputs":[{"name":"intentId","type":"bytes32","internalType":"bytes32"}],"outputs":[{"name":"","type":"uint128","internalType":"uint128"}],"stateMutability":"view"},{"type":"function","name":"intentAssets","inputs":[{"name":"","type":"bytes32","internalType":"bytes32"}],"outputs":[{"name":"","type":"address","internalType":"address"}],"stateMutability":"view"},{"type":"function","name":"intentShares","inputs":[{"name":"","type":"bytes32","internalType":"bytes32"}],"outputs":[{"name":"","type":"uint128","internalType":"uint128"}],"stateMutability":"view"},{"type":"function","name":"l2ContractAddress","inputs":[],"outputs":[{"name":"","type":"bytes32","internalType":"bytes32"}],"stateMutability":"view"},{"type":"function","name":"owner","inputs":[],"outputs":[{"name":"","type":"address","internalType":"address"}],"stateMutability":"view"},{"type":"function","name":"pause","inputs":[],"outputs":[],"stateMutability":"nonpayable"},{"type":"function","name":"paused","inputs":[],"outputs":[{"name":"","type":"bool","internalType":"bool"}],"stateMutability":"view"},{"type":"function","name":"pendingOwner","inputs":[],"outputs":[{"name":"","type":"address","internalType":"address"}],"stateMutability":"view"},{"type":"function","name":"renounceOwnership","inputs":[],"outputs":[],"stateMutability":"nonpayable"},{"type":"function","name":"setL2ContractAddress","inputs":[{"name":"_l2ContractAddress","type":"bytes32","internalType":"bytes32"}],"outputs":[],"stateMutability":"nonpayable"},{"type":"function","name":"transferOwnership","inputs":[{"name":"newOwner","type":"address","internalType":"address"}],"outputs":[],"stateMutability":"nonpayable"},{"type":"function","name":"unpause","inputs":[],"outputs":[],"stateMutability":"nonpayable"},{"type":"event","name":"DepositConfirmed","inputs":[{"name":"intentId","type":"bytes32","indexed":true,"internalType":"bytes32"},{"name":"shares","type":"uint256","indexed":false,"internalType":"uint256"},{"name":"status","type":"uint8","indexed":false,"internalType":"enum ConfirmationStatus"}],"anonymous":false},{"type":"event","name":"DepositExecuted","inputs":[{"name":"intentId","type":"bytes32","indexed":true,"internalType":"bytes32"},{"name":"asset","type":"address","indexed":true,"internalType":"address"},{"name":"amount","type":"uint256","indexed":false,"internalType":"uint256"},{"name":"shares","type":"uint256","indexed":false,"internalType":"uint256"}],"anonymous":false},{"type":"event","name":"EmergencyWithdraw","inputs":[{"name":"token","type":"address","indexed":true,"internalType":"address"},{"name":"to","type":"address","indexed":true,"internalType":"address"},{"name":"amount","type":"uint256","indexed":false,"internalType":"uint256"}],"anonymous":false},{"type":"event","name":"L2ContractAddressUpdated","inputs":[{"name":"oldAddress","type":"bytes32","indexed":true,"internalType":"bytes32"},{"name":"newAddress","type":"bytes32","indexed":true,"internalType":"bytes32"}],"anonymous":false},{"type":"event","name":"L2MessageSent","inputs":[{"name":"intentId","type":"bytes32","indexed":true,"internalType":"bytes32"},{"name":"messageLeaf","type":"bytes32","indexed":false,"internalType":"bytes32"},{"name":"messageIndex","type":"uint256","indexed":false,"internalType":"uint256"}],"anonymous":false},{"type":"event","name":"OwnershipTransferStarted","inputs":[{"name":"previousOwner","type":"address","indexed":true,"internalType":"address"},{"name":"newOwner","type":"address","indexed":true,"internalType":"address"}],"anonymous":false},{"type":"event","name":"OwnershipTransferred","inputs":[{"name":"previousOwner","type":"address","indexed":true,"internalType":"address"},{"name":"newOwner","type":"address","indexed":true,"internalType":"address"}],"anonymous":false},{"type":"event","name":"Paused","inputs":[{"name":"account","type":"address","indexed":false,"internalType":"address"}],"anonymous":false},{"type":"event","name":"TokensDepositedToL2","inputs":[{"name":"intentId","type":"bytes32","indexed":true,"internalType":"bytes32"},{"name":"messageKey","type":"bytes32","indexed":false,"internalType":"bytes32"},{"name":"messageIndex","type":"uint256","indexed":false,"internalType":"uint256"}],"anonymous":false},{"type":"event","name":"Unpaused","inputs":[{"name":"account","type":"address","indexed":false,"internalType":"address"}],"anonymous":false},{"type":"event","name":"WithdrawConfirmed","inputs":[{"name":"intentId","type":"bytes32","indexed":true,"internalType":"bytes32"},{"name":"amount","type":"uint256","indexed":false,"internalType":"uint256"},{"name":"status","type":"uint8","indexed":false,"internalType":"enum ConfirmationStatus"}],"anonymous":false},{"type":"event","name":"WithdrawExecuted","inputs":[{"name":"intentId","type":"bytes32","indexed":true,"internalType":"bytes32"},{"name":"asset","type":"address","indexed":true,"internalType":"address"},{"name":"amount","type":"uint256","indexed":false,"internalType":"uint256"}],"anonymous":false},{"type":"error","name":"AaveSupplyFailed","inputs":[]},{"type":"error","name":"AaveWithdrawFailed","inputs":[]},{"type":"error","name":"DeadlinePassed","inputs":[]},{"type":"error","name":"EnforcedPause","inputs":[]},{"type":"error","name":"ExpectedPause","inputs":[]},{"type":"error","name":"IntentAlreadyConsumed","inputs":[{"name":"intentId","type":"bytes32","internalType":"bytes32"}]},{"type":"error","name":"InvalidDeadline","inputs":[{"name":"deadline","type":"uint256","internalType":"uint256"}]},{"type":"error","name":"L2MessageSendFailed","inputs":[]},{"type":"error","name":"NoSharesForIntent","inputs":[{"name":"intentId","type":"bytes32","internalType":"bytes32"}]},{"type":"error","name":"OwnableInvalidOwner","inputs":[{"name":"owner","type":"address","internalType":"address"}]},{"type":"error","name":"OwnableUnauthorizedAccount","inputs":[{"name":"account","type":"address","internalType":"address"}]},{"type":"error","name":"SafeERC20FailedOperation","inputs":[{"name":"token","type":"address","internalType":"address"}]},{"type":"error","name":"TokenApprovalFailed","inputs":[]},{"type":"error","name":"TokenPortalDepositFailed","inputs":[]},{"type":"error","name":"TokenTransferFailed","inputs":[]},{"type":"error","name":"ZeroAddress","inputs":[]}],"bytecode":{"object":"0x61012080604052346101da5760c081611be180380380916100208285610246565b8339810103126101da576100338161027d565b906100406020820161027d565b9161004d6040830161027d565b6100596060840161027d565b6080840151939092906001600160a01b03906100779060a00161027d565b1694851561023357600180546001600160a01b03199081169091555f80549182168817815560405197916001600160a01b0316907f8be0079c531659141344cd1fd0a4f28419497f9722a3daafe3b4186f6b6457e09080a36001600160a01b038216158015610222575b8015610211575b8015610200575b6101f157602094869460049486946080528360a05260c05260e052600255633fe86b5d60e21b825260018060a01b03165afa9081156101e6575f916101b0575b506101005260405161194f9081610292823960805181818161039b01528181610e5e015261153e015260a0518181816107650152611582015260c05181818161042201528181610fb401526112f2015260e0518181816104b901528181610f3a01526115f201526101005181818161033601528181610e0a01526112160152f35b90506020813d6020116101de575b816101cb60209383610246565b810103126101da57515f61012f565b5f80fd5b3d91506101be565b6040513d5f823e3d90fd5b63d92e233d60e01b5f5260045ffd5b506001600160a01b038416156100ef565b506001600160a01b038316156100e8565b506001600160a01b038116156100e1565b631e4fbdf760e01b5f525f60045260245ffd5b601f909101601f19168101906001600160401b0382119082101761026957604052565b634e487b7160e01b5f52604160045260245ffd5b51906001600160a01b03821682036101da5756fe6080806040526004361015610012575f80fd5b5f905f3560e01c90816308a01675146115e0575080631cc2cb8b146115b15780631f12af8d1461156d57806320209eb414611529578063206921e6146115055780632fc0cb3d146114e85780633df3cfd3146111cc5780633f4ba83a1461147a5780634ef387e51461144b5780635c975abb146114265780636f0e530f14611409578063715018a6146113a657806379ba5097146113215780637ae5dd0a146112dd5780638456cb591461127c57806385ae341d146112605780638da5cb5b146112395780639101de33146111ff578063a1d2b9cf146111cc578063d94fe74f14610ca3578063e032514d14610c58578063e30c397814610c2f578063e63ea40814610b3c578063f2fde38b14610acf578063f821ccfe146101af578063fc1b73b81461017c5763ff72976f14610147575f80fd5b3461017957602036600319011261017957602090600435815260068252604060018060a01b0391205416604051908152f35b80fd5b503461017957602036600319011261017957602090600435815260068252604060018060a01b0391205416604051908152f35b50346101795736600319016101608112610acb576101001361017957610144356001600160401b038111610acb576101eb903690600401611621565b6101f36117e7565b60043591828452600360205260ff604085205416610ab7576001600160401b0361021b61167d565b16421015610aa85761023c6001600160401b0361023661167d565b16611805565b6040519061010082018281106001600160401b03821117610a9457604052838252602435602083018190526044356001600160a01b038116938793929091858103610a88576040830152606435916001600160801b038316928381036108ca5760608201526084359260ff841693848103610a9057608083015260a435936001600160401b03851691828603610a8c5760e09861032f9660a086015260c435948560c082015260e4359a8b910152604051958c602088015260408701526060860152608085015260a084015260c083015260e082015284610100820152610100815261032a610120826116c9565b61187f565b93600254907f0000000000000000000000000000000000000000000000000000000000000000956040519261036384611693565b835286602084015260405161037781611693565b3081524660208201526040519361038d856116ae565b8452602084015260408301527f00000000000000000000000000000000000000000000000000000000000000006001600160a01b0316803b15610a88576103f89385809460405196879586948593637fb3496760e01b855261012435906101043590600487016116ea565b03925af180156108ce57610a73575b50839052600360205260408420805460ff19166001179055837f00000000000000000000000000000000000000000000000000000000000000006001600160a01b0316610452611787565b813b15610a6f576001600160801b0360448492836040519586948593627b8a6760e11b85521660048401523060248401525af180156108ce57610a5a575b505061049a61179d565b6040516335ea6a7560e01b81526001600160a01b0391821660048201527f0000000000000000000000000000000000000000000000000000000000000000909116906101e081602481855afa9081156108aa578691610965575b506040516370a0823160e01b8152306004820152916001600160a01b039190911690602083602481855afa92831561095a578793610926575b506001600160a01b0361053e61179d565b1660206001600160801b036044610553611787565b8b604051958694859363095ea7b360e01b85528960048601521660248401525af190811561091b5788916108ec575b50156108dd57869061059261179d565b61059a611787565b823b156108d95760405163617ba03760e01b81526001600160a01b0390921660048301526001600160801b03166024820152306044820152606481018390529082908290608490829084905af180156108ce576108b5575b50506020602491604051928380926370a0823160e01b82523060048301525afa9081156108aa57869161086d575b506001600160801b0391610633916117b3565b1690811561085e5783855260056020526040852080546001600160801b0319168317905561065f61179d565b84865260066020526040862080546001600160a01b0319166001600160a01b0390921691909117905561069061179d565b847fc952423ff08cdacff0f6e4268a16285765e3f5eb4fcde8fbd4c981cc9858488960406106bc611787565b81516001600160801b039091168152602081018790526001600160a01b0390941693a36107176001600160a01b036106f261179d565b166040519086602083015260408201528360608201526060815261032a6080826116c9565b600254936040519461072886611693565b85526020850190815260405194631f6d510b60e01b8652516004860152516024850152604484015260648301526040826084818760018060a01b037f0000000000000000000000000000000000000000000000000000000000000000165af1918215610853577fda6a32d6995bf9aa269353dddbe234d0866298db111521e41d8a65ab4f6c96a79284604093879388936107fb575b50847f66a1ae1efa6e9f29acec9264ee37ed02fecfd69183086fa5e519e83cdd3ccae6918151908152896020820152a282519182526020820152a280f35b8594507f66a1ae1efa6e9f29acec9264ee37ed02fecfd69183086fa5e519e83cdd3ccae691935061084190853d871161084c575b61083981836116c9565b810190611771565b9490949391506107bd565b503d61082f565b6040513d86823e3d90fd5b634f6baa2960e01b8552600485fd5b90506020813d6020116108a2575b81610888602093836116c9565b8101031261089e57516001600160801b03610620565b5f80fd5b3d915061087b565b6040513d88823e3d90fd5b816108bf916116c9565b6108ca57855f6105f2565b8580fd5b6040513d84823e3d90fd5b8380fd5b632d4de02b60e01b8752600487fd5b61090e915060203d602011610914575b61090681836116c9565b810190611759565b5f610582565b503d6108fc565b6040513d8a823e3d90fd5b9092506020813d602011610952575b81610942602093836116c9565b8101031261089e5751915f61052d565b3d9150610935565b6040513d89823e3d90fd5b90506101e0813d8211610a52575b816109816101e093836116c9565b810103126108ca5761099560208201611857565b506109a260408201611857565b506109af60608201611857565b506109bc60808201611857565b506109c960a08201611857565b5060c081015164ffffffffff8116036108ca5760e081015161ffff8116036108ca57610a4b6101c06109fe610100840161186b565b92610a0c610120820161186b565b50610a1a610140820161186b565b50610a28610160820161186b565b50610a366101808201611857565b50610a446101a08201611857565b5001611857565b505f6104f4565b3d9150610973565b81610a64916116c9565b6108d957835f610490565b8280fd5b81610a7d916116c9565b6108d957835f610407565b8480fd5b8780fd5b8680fd5b634e487b7160e01b86526041600452602486fd5b63387b2e5560e11b8452600484fd5b63535a32a760e11b84526004839052602484fd5b5080fd5b503461017957602036600319011261017957610ae9611651565b610af16117d4565b600180546001600160a01b0319166001600160a01b0392831690811790915582549091167f38d16b8cac22d99fc7c124b9cd0de2d3fa1faef420bfe791d8c362d765e227008380a380f35b503461017957606036600319011261017957610b56611651565b6024356001600160a01b0381169190829003610a6f5760443590610b786117d4565b8215610c205760405163a9059cbb60e01b8552600484905260248390526001600160a01b03919091169160208560448180875af16001865114811615610c01575b8260405215610bed57816020917ff24ef89f38eadc1bde50701ad6e4d6d11a2dc24f7cf834a486991f38833285049352a380f35b635274afe760e01b85526004839052602485fd5b6001811516610c1757833b15153d151616610bb9565b823d87823e3d90fd5b63d92e233d60e01b8452600484fd5b50346101795780600319360112610179576001546040516001600160a01b039091168152602090f35b503461017957602036600319011261017957600435610c756117d4565b600254816002557f19f4ae10e102e7d920ac5ac4001fe881f24c598aa0bc2624ff065055612ef4078380a380f35b503461089e573660031901610100811261089e5760801361089e5760843560e4356001600160401b03811161089e57610ce0903690600401611621565b9091610cea6117e7565b60043592835f52600460205260ff60405f2054166111b9576001600160401b03610d12611667565b164210156111aa57610d2d6001600160401b03610236611667565b835f5260056020526001600160801b0360405f20541690811561119757845f52600660205260018060a01b0360405f20541693604051608081018181106001600160401b03821117611183576040528681526024358060208301526044356001600160801b0381169081810361089e576040840152606435906001600160401b0382169182810361089e576060610df4950152604051928a60208501526040840152606083015260808201528660a08201528560c082015260c0815261032a60e0826116c9565b906002549160405192610e0684611693565b83527f00000000000000000000000000000000000000000000000000000000000000006020840152604051610e3a81611693565b30815246602082015260405193610e50856116ae565b8452602084015260408301527f00000000000000000000000000000000000000000000000000000000000000006001600160a01b0316803b1561089e57610eb9935f809460405196879586948593637fb3496760e01b855260c4359060a43590600487016116ea565b03925af1801561117857611163575b50838552600460208181526040808820805460ff191660011790558688526005825280882080546001600160801b03191690558688526006825280882080546001600160a01b031916905551631a4ca37b60e21b815291820185905260248201929092523060448201529081606481887f00000000000000000000000000000000000000000000000000000000000000006001600160a01b03165af1908115611158578591611126575b5080156111175782847ff5fcca62037075195a3fc429e3478dcc6fc9e9d6b14fcd71cae6eeab97b209106020604051858152a360405163095ea7b360e01b81527f00000000000000000000000000000000000000000000000000000000000000006001600160a01b031660048201819052602482018790529386919060208260448186855af19182156110c3576020926110fc575b5060446040518094819363095ea7b360e01b83528960048401528760248401525af19081156108aa5786916110dd575b50156110ce57906044604092868451958694859363ddca83dd60e01b8552600485015260248401525af180156110c3577f0227d4acbd7d255fe4ff206c94b800ab01abfc72e94c650ff7af246ee5208e0b91604091859186916110a4575b5082519182526020820152a280f35b90506110bd9150823d841161084c5761083981836116c9565b5f611095565b6040513d85823e3d90fd5b63022e258160e11b8552600485fd5b6110f6915060203d6020116109145761090681836116c9565b5f611037565b61111290833d85116109145761090681836116c9565b611007565b63582c0b1b60e01b8552600485fd5b90506020813d602011611150575b81611141602093836116c9565b8101031261089e57515f610f72565b3d9150611134565b6040513d87823e3d90fd5b6111709195505f906116c9565b5f935f610ec8565b6040513d5f823e3d90fd5b634e487b7160e01b5f52604160045260245ffd5b84639f23515160e01b5f5260045260245ffd5b63387b2e5560e11b5f5260045ffd5b8363535a32a760e11b5f5260045260245ffd5b3461089e57602036600319011261089e576004355f52600560205260206001600160801b0360405f205416604051908152f35b3461089e575f36600319011261089e5760206040517f00000000000000000000000000000000000000000000000000000000000000008152f35b3461089e575f36600319011261089e575f546040516001600160a01b039091168152602090f35b3461089e575f36600319011261089e57602060405161012c8152f35b3461089e575f36600319011261089e576112946117d4565b61129c6117e7565b6001805460ff60a01b1916600160a01b1790556040513381527f62e78cea01bee320cd4e420270b5ea74000d11b0c9f74754ebdbfc544b05a25890602090a1005b3461089e575f36600319011261089e576040517f00000000000000000000000000000000000000000000000000000000000000006001600160a01b03168152602090f35b3461089e575f36600319011261089e57600154336001600160a01b039091160361139357600180546001600160a01b03199081169091555f805433928116831782556001600160a01b0316907f8be0079c531659141344cd1fd0a4f28419497f9722a3daafe3b4186f6b6457e09080a3005b63118cdaa760e01b5f523360045260245ffd5b3461089e575f36600319011261089e576113be6117d4565b600180546001600160a01b03199081169091555f80549182168155906001600160a01b03167f8be0079c531659141344cd1fd0a4f28419497f9722a3daafe3b4186f6b6457e08280a3005b3461089e575f36600319011261089e576020604051620151808152f35b3461089e575f36600319011261089e57602060ff60015460a01c166040519015158152f35b3461089e57602036600319011261089e576004355f526004602052602060ff60405f2054166040519015158152f35b3461089e575f36600319011261089e576114926117d4565b60015460ff8160a01c16156114d95760ff60a01b19166001556040513381527f5db9ee0a495bf2e6ff9c91a7834c1ba4fdd244a5e8aa4e537bd38aeae4b073aa90602090a1005b638dfc202b60e01b5f5260045ffd5b3461089e575f36600319011261089e576020600254604051908152f35b3461089e575f36600319011261089e576040805161012c8152620151806020820152f35b3461089e575f36600319011261089e576040517f00000000000000000000000000000000000000000000000000000000000000006001600160a01b03168152602090f35b3461089e575f36600319011261089e576040517f00000000000000000000000000000000000000000000000000000000000000006001600160a01b03168152602090f35b3461089e57602036600319011261089e576004355f526003602052602060ff60405f2054166040519015158152f35b3461089e575f36600319011261089e577f00000000000000000000000000000000000000000000000000000000000000006001600160a01b03168152602090f35b9181601f8401121561089e578235916001600160401b03831161089e576020808501948460051b01011161089e57565b600435906001600160a01b038216820361089e57565b6064356001600160401b038116810361089e5790565b60a4356001600160401b038116810361089e5790565b604081019081106001600160401b0382111761118357604052565b606081019081106001600160401b0382111761118357604052565b90601f801991011681019081106001600160401b0382111761118357604052565b92919060409060208151805187520151602086015260208082015160018060a01b0381511684880152015160608601520151608084015260a083015260c082015261010060e08201528261010082015260018060fb1b03831161089e576101209260051b809284830137010190565b9081602091031261089e5751801515810361089e5790565b919082604091031261089e576020825192015190565b6064356001600160801b038116810361089e5790565b6044356001600160a01b038116810361089e5790565b919082039182116117c057565b634e487b7160e01b5f52601160045260245ffd5b5f546001600160a01b0316330361139357565b60ff60015460a01c166117f657565b63d93c066560e01b5f5260045ffd5b428111156118515761181742826117b3565b61012c811061183e57620151801061182c5750565b6309decb5d60e21b5f5260045260245ffd5b506309decb5d60e21b5f5260045260245ffd5b5f611817565b51906001600160801b038216820361089e57565b51906001600160a01b038216820361089e57565b604080519161188e82846116c9565b6001835260205f8180860193601f1986013686378551918183925191829101835e8101838152039060025afa1561190f57601f60206118f19260ff195f5116945194859183830197518091895e8201908382015203015f198101845201826116c9565b5190519060208110611901575090565b5f199060200360031b1b1690565b50513d5f823e3d90fdfea2646970667358221220499228e7ec4b07ec397172bf155ce8f9d945ab9291fdcec5fe3a2047d9f4cf0564736f6c63430008210033","linkReferences":{}},"methodIdentifiers":{"AAVE_POOL()":"08a01675","AZTEC_INBOX()":"1f12af8d","AZTEC_OUTBOX()":"20209eb4","AZTEC_VERSION()":"9101de33","MAX_DEADLINE()":"6f0e530f","MIN_DEADLINE()":"85ae341d","TOKEN_PORTAL()":"7ae5dd0a","acceptOwnership()":"79ba5097","consumedDepositIntents(bytes32)":"1cc2cb8b","consumedWithdrawIntents(bytes32)":"4ef387e5","emergencyWithdraw(address,address,uint256)":"e63ea408","executeDeposit((bytes32,bytes32,address,uint128,uint8,uint64,bytes32,bytes32),uint256,uint256,bytes32[])":"f821ccfe","executeWithdraw((bytes32,bytes32,uint128,uint64),bytes32,uint256,uint256,bytes32[])":"d94fe74f","getDeadlineConstraints()":"206921e6","getIntentAsset(bytes32)":"ff72976f","getIntentShares(bytes32)":"3df3cfd3","intentAssets(bytes32)":"fc1b73b8","intentShares(bytes32)":"a1d2b9cf","l2ContractAddress()":"2fc0cb3d","owner()":"8da5cb5b","pause()":"8456cb59","paused()":"5c975abb","pendingOwner()":"e30c3978","renounceOwnership()":"715018a6","setL2ContractAddress(bytes32)":"e032514d","transferOwnership(address)":"f2fde38b","unpause()":"3f4ba83a"},"id":0}