{"abi":[{"type":"function","name":"aTokenAddresses","inputs":[{"name":"","type":"address","internalType":"address"}],"outputs":[{"name":"","type":"address","internalType":"address"}],"stateMutability":"view"},{"type":"function","name":"deposits","inputs":[{"name":"","type":"address","internalType":"address"},{"name":"","type":"address","internalType":"address"}],"outputs":[{"name":"","type":"uint256","internalType":"uint256"}],"stateMutability":"view"},{"type":"function","name":"failSupply","inputs":[],"outputs":[{"name":"","type":"bool","internalType":"bool"}],"stateMutability":"view"},{"type":"function","name":"failWithdraw","inputs":[],"outputs":[{"name":"","type":"bool","internalType":"bool"}],"stateMutability":"view"},{"type":"function","name":"getDeposit","inputs":[{"name":"user","type":"address","internalType":"address"},{"name":"asset","type":"address","internalType":"address"}],"outputs":[{"name":"","type":"uint256","internalType":"uint256"}],"stateMutability":"view"},{"type":"function","name":"getReserveData","inputs":[{"name":"asset","type":"address","internalType":"address"}],"outputs":[{"name":"","type":"uint256","internalType":"uint256"},{"name":"","type":"uint128","internalType":"uint128"},{"name":"","type":"uint128","internalType":"uint128"},{"name":"","type":"uint128","internalType":"uint128"},{"name":"","type":"uint128","internalType":"uint128"},{"name":"","type":"uint128","internalType":"uint128"},{"name":"","type":"uint40","internalType":"uint40"},{"name":"","type":"uint16","internalType":"uint16"},{"name":"","type":"address","internalType":"address"},{"name":"","type":"address","internalType":"address"},{"name":"","type":"address","internalType":"address"},{"name":"","type":"address","internalType":"address"},{"name":"","type":"uint128","internalType":"uint128"},{"name":"","type":"uint128","internalType":"uint128"},{"name":"","type":"uint128","internalType":"uint128"}],"stateMutability":"view"},{"type":"function","name":"getReserveNormalizedIncome","inputs":[{"name":"asset","type":"address","internalType":"address"}],"outputs":[{"name":"","type":"uint256","internalType":"uint256"}],"stateMutability":"view"},{"type":"function","name":"getUserAccountData","inputs":[{"name":"","type":"address","internalType":"address"}],"outputs":[{"name":"","type":"uint256","internalType":"uint256"},{"name":"","type":"uint256","internalType":"uint256"},{"name":"","type":"uint256","internalType":"uint256"},{"name":"","type":"uint256","internalType":"uint256"},{"name":"","type":"uint256","internalType":"uint256"},{"name":"","type":"uint256","internalType":"uint256"}],"stateMutability":"pure"},{"type":"function","name":"normalizedIncomes","inputs":[{"name":"","type":"address","internalType":"address"}],"outputs":[{"name":"","type":"uint256","internalType":"uint256"}],"stateMutability":"view"},{"type":"function","name":"setATokenAddress","inputs":[{"name":"asset","type":"address","internalType":"address"},{"name":"aToken","type":"address","internalType":"address"}],"outputs":[],"stateMutability":"nonpayable"},{"type":"function","name":"setFailSupply","inputs":[{"name":"fail","type":"bool","internalType":"bool"}],"outputs":[],"stateMutability":"nonpayable"},{"type":"function","name":"setFailWithdraw","inputs":[{"name":"fail","type":"bool","internalType":"bool"}],"outputs":[],"stateMutability":"nonpayable"},{"type":"function","name":"setNormalizedIncome","inputs":[{"name":"asset","type":"address","internalType":"address"},{"name":"income","type":"uint256","internalType":"uint256"}],"outputs":[],"stateMutability":"nonpayable"},{"type":"function","name":"supply","inputs":[{"name":"asset","type":"address","internalType":"address"},{"name":"amount","type":"uint256","internalType":"uint256"},{"name":"onBehalfOf","type":"address","internalType":"address"},{"name":"referralCode","type":"uint16","internalType":"uint16"}],"outputs":[],"stateMutability":"nonpayable"},{"type":"function","name":"withdraw","inputs":[{"name":"asset","type":"address","internalType":"address"},{"name":"amount","type":"uint256","internalType":"uint256"},{"name":"to","type":"address","internalType":"address"}],"outputs":[{"name":"","type":"uint256","internalType":"uint256"}],"stateMutability":"nonpayable"},{"type":"event","name":"Supply","inputs":[{"name":"asset","type":"address","indexed":true,"internalType":"address"},{"name":"amount","type":"uint256","indexed":false,"internalType":"uint256"},{"name":"onBehalfOf","type":"address","indexed":true,"internalType":"address"},{"name":"referralCode","type":"uint16","indexed":false,"internalType":"uint16"}],"anonymous":false},{"type":"event","name":"Withdraw","inputs":[{"name":"asset","type":"address","indexed":true,"internalType":"address"},{"name":"amount","type":"uint256","indexed":false,"internalType":"uint256"},{"name":"to","type":"address","indexed":true,"internalType":"address"}],"anonymous":false},{"type":"error","name":"InsufficientBalance","inputs":[]},{"type":"error","name":"SupplyFailed","inputs":[]},{"type":"error","name":"WithdrawFailed","inputs":[]}],"bytecode":{"object":"0x60808060405234601557610883908161001a8239f35b5f80fdfe6080806040526004361015610012575f80fd5b5f905f3560e01c908163119ab8871461079e57508063296f5b8a1461075e57806335ea6a75146106c2578063456589fb1461069257806349c0a84a1461065b578063617ba0371461048357806369328dec146102935780638f601f66146101ae578063bb74e23e14610245578063bf92857c14610200578063c35082a9146101ae578063c811ba0214610175578063d15e005314610120578063d208e290146100eb5763e864188f146100c3575f80fd5b346100e857806003193601126100e857602060ff60015460081c166040519015158152f35b80fd5b50346100e85760403660031901126100e8576001600160a01b0361010d6107bd565b1681526003602052602435604082205580f35b50346100e85760203660031901126100e8576001600160a01b036101426107bd565b168152600360205260409020548061016d575060206b033b2e3c9fd0803ce80000005b604051908152f35b602090610165565b50346100e85760203660031901126100e8576020906040906001600160a01b0361019d6107bd565b168152600383522054604051908152f35b50346100e85760403660031901126100e85760406101ca6107bd565b916101d36107e9565b9260018060a01b0316815280602052209060018060a01b03165f52602052602060405f2054604051908152f35b50346100e85760203660031901126100e85760c09061021d6107bd565b506040519080825280602083015280604083015280606083015260808201525f1960a0820152f35b50346100e85760403660031901126100e85761025f6107bd565b6102676107e9565b6001600160a01b03918216835260026020526040832080546001600160a01b0319169190921617905580f35b50346100e85760603660031901126100e8576102ad6107bd565b602435906102b96107d3565b9060ff60015460081c1661047457338452836020526040842060018060a01b0382165f526020528260405f20541061046557338452602084815260408086206001600160a01b0384165f9081529252902080548481039190821161045157556001600160a01b03908116808552600260205260408520549091859116806103ef575b505060405163a9059cbb60e01b81526001600160a01b03831660048201526024810184905260208160448188865af180156103e457602095506103b9575b506040518381526001600160a01b03909216917f56c54ba9bd38d8fd62012e42c7ee564519b09763c426d331b3661b537ead19b2908590a3604051908152f35b6103d890853d87116103dd575b6103d081836107ff565b810190610835565b610379565b503d6103c6565b6040513d87823e3d90fd5b803b1561044d57604051632770a7eb60e21b8152336004820152602481018690529082908290604490829084905af18015610442571561033b5781610433916107ff565b61043e57835f61033b565b8380fd5b6040513d84823e3d90fd5b5080fd5b634e487b7160e01b86526011600452602486fd5b631e9acf1760e31b8452600484fd5b631d42c86760e21b8452600484fd5b50346106175760803660031901126106175761049d6107bd565b602435906104a96107d3565b916064359161ffff83168093036106175760ff6001541661064c576040516323b872dd60e01b8152336004820152306024820152604481018390526001600160a01b039190911692906020816064815f885af1801561060c5761062f575b5060018060a01b03841693845f525f60205260405f20845f5260205260405f2080549084820180921161061b57555f848152600260205260409020546001600160a01b031680610587575b50507fb9f27db670c081e21e3981406d212aa9f078019b69843ae23946ce7533379ef29160409182519182526020820152a380f35b803b15610617576040516340c10f1960e01b81526001600160a01b03929092166004830152602482018490525f908290604490829084905af1801561060c576105d1575b80610552565b6040919550916106025f7fb9f27db670c081e21e3981406d212aa9f078019b69843ae23946ce7533379ef2946107ff565b5f959150916105cb565b6040513d5f823e3d90fd5b5f80fd5b634e487b7160e01b5f52601160045260245ffd5b6106479060203d6020116103dd576103d081836107ff565b610507565b6309d6b75960e11b5f5260045ffd5b34610617576020366003190112610617576004358015158091036106175761ff006001549160081b169061ff001916176001555f80f35b34610617576020366003190112610617576004358015158091036106175760ff8019600154169116176001555f80f35b34610617576020366003190112610617576001600160a01b036106e36107bd565b165f5260026020526101e060018060a01b0360405f205416604051905f82525f60208301525f60408301525f60608301525f60808301525f60a08301525f60c08301525f60e08301526101008201525f6101208201525f6101408201525f6101608201525f6101808201525f6101a08201525f6101c0820152f35b34610617576020366003190112610617576001600160a01b0361077f6107bd565b165f526002602052602060018060a01b0360405f205416604051908152f35b34610617575f3660031901126106175760209060ff6001541615158152f35b600435906001600160a01b038216820361061757565b604435906001600160a01b038216820361061757565b602435906001600160a01b038216820361061757565b90601f8019910116810190811067ffffffffffffffff82111761082157604052565b634e487b7160e01b5f52604160045260245ffd5b9081602091031261061757518015158103610617579056fea2646970667358221220603cb1cc401a58c873e3e150c402404b437cd6daa215495d5d1e6fc18dc6e99c64736f6c63430008210033","linkReferences":{}},"methodIdentifiers":{"aTokenAddresses(address)":"296f5b8a","deposits(address,address)":"8f601f66","failSupply()":"119ab887","failWithdraw()":"e864188f","getDeposit(address,address)":"c35082a9","getReserveData(address)":"35ea6a75","getReserveNormalizedIncome(address)":"d15e0053","getUserAccountData(address)":"bf92857c","normalizedIncomes(address)":"c811ba02","setATokenAddress(address,address)":"bb74e23e","setFailSupply(bool)":"456589fb","setFailWithdraw(bool)":"49c0a84a","setNormalizedIncome(address,uint256)":"d208e290","supply(address,uint256,address,uint16)":"617ba037","withdraw(address,uint256,address)":"69328dec"},"id":9}